{
  "contractName": "Senpai",
  "abi": [
    {
      "constant": true,
      "inputs": [
        {
          "name": "idx",
          "type": "uint256"
        }
      ],
      "name": "getDepartment",
      "outputs": [
        {
          "name": "",
          "type": "uint256"
        }
      ],
      "payable": false,
      "stateMutability": "view",
      "type": "function"
    },
    {
      "constant": true,
      "inputs": [
        {
          "name": "idx",
          "type": "uint256"
        }
      ],
      "name": "getFileUrl",
      "outputs": [
        {
          "name": "",
          "type": "string"
        }
      ],
      "payable": false,
      "stateMutability": "view",
      "type": "function"
    },
    {
      "constant": true,
      "inputs": [
        {
          "name": "idx",
          "type": "uint256"
        }
      ],
      "name": "getLikeNum",
      "outputs": [
        {
          "name": "",
          "type": "uint256"
        }
      ],
      "payable": false,
      "stateMutability": "view",
      "type": "function"
    },
    {
      "constant": true,
      "inputs": [
        {
          "name": "idx",
          "type": "uint256"
        }
      ],
      "name": "getDescription",
      "outputs": [
        {
          "name": "",
          "type": "string"
        }
      ],
      "payable": false,
      "stateMutability": "view",
      "type": "function"
    },
    {
      "constant": true,
      "inputs": [
        {
          "name": "idx",
          "type": "uint256"
        }
      ],
      "name": "getCourseId",
      "outputs": [
        {
          "name": "",
          "type": "string"
        }
      ],
      "payable": false,
      "stateMutability": "view",
      "type": "function"
    },
    {
      "constant": false,
      "inputs": [
        {
          "name": "pid",
          "type": "uint256"
        },
        {
          "name": "_title",
          "type": "string"
        },
        {
          "name": "_file_url",
          "type": "string"
        },
        {
          "name": "_price",
          "type": "uint256"
        },
        {
          "name": "_created_at",
          "type": "uint256"
        },
        {
          "name": "_source_type",
          "type": "uint256"
        },
        {
          "name": "_department",
          "type": "uint256"
        },
        {
          "name": "_course_id",
          "type": "string"
        },
        {
          "name": "_description",
          "type": "string"
        },
        {
          "name": "_activate",
          "type": "bool"
        }
      ],
      "name": "edit_product",
      "outputs": [
        {
          "name": "",
          "type": "bool"
        }
      ],
      "payable": false,
      "stateMutability": "nonpayable",
      "type": "function"
    },
    {
      "constant": true,
      "inputs": [
        {
          "name": "product_idx",
          "type": "uint256"
        }
      ],
      "name": "get_purchased_products",
      "outputs": [
        {
          "name": "upid",
          "type": "uint256"
        }
      ],
      "payable": false,
      "stateMutability": "view",
      "type": "function"
    },
    {
      "constant": true,
      "inputs": [
        {
          "name": "idx",
          "type": "uint256"
        }
      ],
      "name": "getTitle",
      "outputs": [
        {
          "name": "",
          "type": "string"
        }
      ],
      "payable": false,
      "stateMutability": "view",
      "type": "function"
    },
    {
      "constant": true,
      "inputs": [
        {
          "name": "idx",
          "type": "uint256"
        }
      ],
      "name": "getCreatedAt",
      "outputs": [
        {
          "name": "",
          "type": "uint256"
        }
      ],
      "payable": false,
      "stateMutability": "view",
      "type": "function"
    },
    {
      "constant": true,
      "inputs": [
        {
          "name": "idx",
          "type": "uint256"
        }
      ],
      "name": "getDownloadNum",
      "outputs": [
        {
          "name": "",
          "type": "uint256"
        }
      ],
      "payable": false,
      "stateMutability": "view",
      "type": "function"
    },
    {
      "constant": true,
      "inputs": [
        {
          "name": "idx",
          "type": "uint256"
        }
      ],
      "name": "getAAA",
      "outputs": [
        {
          "name": "",
          "type": "uint256"
        }
      ],
      "payable": false,
      "stateMutability": "view",
      "type": "function"
    },
    {
      "constant": true,
      "inputs": [
        {
          "name": "idx",
          "type": "uint256"
        }
      ],
      "name": "getUploader",
      "outputs": [
        {
          "name": "",
          "type": "address"
        }
      ],
      "payable": false,
      "stateMutability": "view",
      "type": "function"
    },
    {
      "constant": false,
      "inputs": [
        {
          "name": "pid",
          "type": "uint256"
        }
      ],
      "name": "purchase_product",
      "outputs": [],
      "payable": true,
      "stateMutability": "payable",
      "type": "function"
    },
    {
      "constant": true,
      "inputs": [
        {
          "name": "product_idx",
          "type": "uint256"
        }
      ],
      "name": "get_selling_products",
      "outputs": [
        {
          "name": "upid",
          "type": "uint256"
        }
      ],
      "payable": false,
      "stateMutability": "view",
      "type": "function"
    },
    {
      "constant": true,
      "inputs": [
        {
          "name": "idx",
          "type": "uint256"
        }
      ],
      "name": "getPrice",
      "outputs": [
        {
          "name": "",
          "type": "uint256"
        }
      ],
      "payable": false,
      "stateMutability": "view",
      "type": "function"
    },
    {
      "constant": false,
      "inputs": [
        {
          "name": "pid",
          "type": "uint256"
        }
      ],
      "name": "like",
      "outputs": [
        {
          "name": "",
          "type": "bool"
        }
      ],
      "payable": false,
      "stateMutability": "nonpayable",
      "type": "function"
    },
    {
      "constant": true,
      "inputs": [
        {
          "name": "idx",
          "type": "uint256"
        }
      ],
      "name": "getSourceType",
      "outputs": [
        {
          "name": "",
          "type": "uint256"
        }
      ],
      "payable": false,
      "stateMutability": "view",
      "type": "function"
    },
    {
      "constant": false,
      "inputs": [
        {
          "name": "_title",
          "type": "string"
        },
        {
          "name": "_file_url",
          "type": "string"
        },
        {
          "name": "_price",
          "type": "uint256"
        },
        {
          "name": "_created_at",
          "type": "uint256"
        },
        {
          "name": "_source_type",
          "type": "uint256"
        },
        {
          "name": "_department",
          "type": "uint256"
        },
        {
          "name": "_course_id",
          "type": "string"
        },
        {
          "name": "_description",
          "type": "string"
        }
      ],
      "name": "create_product",
      "outputs": [
        {
          "name": "",
          "type": "bool"
        }
      ],
      "payable": true,
      "stateMutability": "payable",
      "type": "function"
    }
  ],
  "bytecode": "0x6060604052341561000f57600080fd5b61139a8061001e6000396000f3006060604052600436106100fc576000357c0100000000000000000000000000000000000000000000000000000000900463ffffffff1680631658747c146101015780631ae40dd0146101385780632fa68dfa146101d45780634925ec551461020b57806352db07ee146102a75780635fbe8e97146103435780637022e37c146104b9578063929a79b1146104f05780639676d8091461058c578063973add6d146105c35780639c946cb4146105fa578063c47ddae914610631578063d102747814610694578063e58989c8146106ac578063e7572230146106e3578063e82935da1461071a578063eeaa805714610755578063faf93a7b1461078c575b600080fd5b341561010c57600080fd5b61012260048080359060200190919050506108e3565b6040518082815260200191505060405180910390f35b341561014357600080fd5b6101596004808035906020019091905050610902565b6040518080602001828103825283818151815260200191508051906020019080838360005b8381101561019957808201518184015260208101905061017e565b50505050905090810190601f1680156101c65780820380516001836020036101000a031916815260200191505b509250505060405180910390f35b34156101df57600080fd5b6101f560048080359060200190919050506109bf565b6040518082815260200191505060405180910390f35b341561021657600080fd5b61022c60048080359060200190919050506109de565b6040518080602001828103825283818151815260200191508051906020019080838360005b8381101561026c578082015181840152602081019050610251565b50505050905090810190601f1680156102995780820380516001836020036101000a031916815260200191505b509250505060405180910390f35b34156102b257600080fd5b6102c86004808035906020019091905050610a9b565b6040518080602001828103825283818151815260200191508051906020019080838360005b838110156103085780820151818401526020810190506102ed565b50505050905090810190601f1680156103355780820380516001836020036101000a031916815260200191505b509250505060405180910390f35b341561034e57600080fd5b61049f600480803590602001909190803590602001908201803590602001908080601f0160208091040260200160405190810160405280939291908181526020018383808284378201915050505050509190803590602001908201803590602001908080601f0160208091040260200160405190810160405280939291908181526020018383808284378201915050505050509190803590602001909190803590602001909190803590602001909190803590602001909190803590602001908201803590602001908080601f0160208091040260200160405190810160405280939291908181526020018383808284378201915050505050509190803590602001908201803590602001908080601f016020809104026020016040519081016040528093929190818152602001838380828437820191505050505050919080351515906020019091905050610b58565b604051808215151515815260200191505060405180910390f35b34156104c457600080fd5b6104da6004808035906020019091905050610cfd565b6040518082815260200191505060405180910390f35b34156104fb57600080fd5b6105116004808035906020019091905050610d62565b6040518080602001828103825283818151815260200191508051906020019080838360005b83811015610551578082015181840152602081019050610536565b50505050905090810190601f16801561057e5780820380516001836020036101000a031916815260200191505b509250505060405180910390f35b341561059757600080fd5b6105ad6004808035906020019091905050610e1f565b6040518082815260200191505060405180910390f35b34156105ce57600080fd5b6105e46004808035906020019091905050610e3e565b6040518082815260200191505060405180910390f35b341561060557600080fd5b61061b6004808035906020019091905050610e5d565b6040518082815260200191505060405180910390f35b341561063c57600080fd5b6106526004808035906020019091905050610e7c565b604051808273ffffffffffffffffffffffffffffffffffffffff1673ffffffffffffffffffffffffffffffffffffffff16815260200191505060405180910390f35b6106aa6004808035906020019091905050610ebb565b005b34156106b757600080fd5b6106cd6004808035906020019091905050610fb3565b6040518082815260200191505060405180910390f35b34156106ee57600080fd5b6107046004808035906020019091905050611018565b6040518082815260200191505060405180910390f35b341561072557600080fd5b61073b6004808035906020019091905050611037565b604051808215151515815260200191505060405180910390f35b341561076057600080fd5b6107766004808035906020019091905050611083565b6040518082815260200191505060405180910390f35b6108c9600480803590602001908201803590602001908080601f0160208091040260200160405190810160405280939291908181526020018383808284378201915050505050509190803590602001908201803590602001908080601f0160208091040260200160405190810160405280939291908181526020018383808284378201915050505050509190803590602001909190803590602001909190803590602001909190803590602001909190803590602001908201803590602001908080601f0160208091040260200160405190810160405280939291908181526020018383808284378201915050505050509190803590602001908201803590602001908080601f016020809104026020016040519081016040528093929190818152602001838380828437820191505050505050919050506110a2565b604051808215151515815260200191505060405180910390f35b6000806000838152602001908152602001600020600801549050919050565b61090a6112b5565b6000808381526020019081526020016000206002018054600181600116156101000203166002900480601f0160208091040260200160405190810160405280929190818152602001828054600181600116156101000203166002900480156109b35780601f10610988576101008083540402835291602001916109b3565b820191906000526020600020905b81548152906001019060200180831161099657829003601f168201915b50505050509050919050565b6000806000838152602001908152602001600020600601549050919050565b6109e66112b5565b600080838152602001908152602001600020600a018054600181600116156101000203166002900480601f016020809104026020016040519081016040528092919081815260200182805460018160011615610100020316600290048015610a8f5780601f10610a6457610100808354040283529160200191610a8f565b820191906000526020600020905b815481529060010190602001808311610a7257829003601f168201915b50505050509050919050565b610aa36112b5565b6000808381526020019081526020016000206009018054600181600116156101000203166002900480601f016020809104026020016040519081016040528092919081815260200182805460018160011615610100020316600290048015610b4c5780601f10610b2157610100808354040283529160200191610b4c565b820191906000526020600020905b815481529060010190602001808311610b2f57829003601f168201915b50505050509050919050565b6000336000808d815260200190815260200160002060000160006101000a81548173ffffffffffffffffffffffffffffffffffffffff021916908373ffffffffffffffffffffffffffffffffffffffff160217905550896000808d81526020019081526020016000206001019080519060200190610bd79291906112c9565b50886000808d81526020019081526020016000206002019080519060200190610c019291906112c9565b50876000808d815260200190815260200160002060030181905550866000808d815260200190815260200160002060040181905550856000808d815260200190815260200160002060070181905550846000808d815260200190815260200160002060080181905550836000808d81526020019081526020016000206009019080519060200190610c939291906112c9565b50826000808d8152602001908152602001600020600a019080519060200190610cbd9291906112c9565b50816000808d8152602001908152602001600020600b0160006101000a81548160ff021916908315150217905550600190509a9950505050505050505050565b600080339050600260008273ffffffffffffffffffffffffffffffffffffffff1673ffffffffffffffffffffffffffffffffffffffff168152602001908152602001600020600101600084815260200190815260200160002054915081915050919050565b610d6a6112b5565b6000808381526020019081526020016000206001018054600181600116156101000203166002900480601f016020809104026020016040519081016040528092919081815260200182805460018160011615610100020316600290048015610e135780601f10610de857610100808354040283529160200191610e13565b820191906000526020600020905b815481529060010190602001808311610df657829003601f168201915b50505050509050919050565b6000806000838152602001908152602001600020600401549050919050565b6000806000838152602001908152602001600020600501549050919050565b6000806000838152602001908152602001600020600301549050919050565b600080600083815260200190815260200160002060000160009054906101000a900473ffffffffffffffffffffffffffffffffffffffff169050919050565b60008060008310158015610ed0575060015483105b1515610edb57600080fd5b339150600260008373ffffffffffffffffffffffffffffffffffffffff1673ffffffffffffffffffffffffffffffffffffffff168152602001908152602001600020600201600081548092919060010191905055905082600260008473ffffffffffffffffffffffffffffffffffffffff1673ffffffffffffffffffffffffffffffffffffffff16815260200190815260200160002060010160008381526020019081526020016000208190555060008084815260200190815260200160002060050160008154809291906001019190505550505050565b600080339050600260008273ffffffffffffffffffffffffffffffffffffffff1673ffffffffffffffffffffffffffffffffffffffff168152602001908152602001600020600301600084815260200190815260200160002054915081915050919050565b6000806000838152602001908152602001600020600301549050919050565b600080821015801561104a575060015482105b151561105557600080fd5b6000808381526020019081526020016000206006016000815480929190600101919050555060019050919050565b6000806000838152602001908152602001600020600701549050919050565b6000806000600160008154809291906001019190505591508a60008084815260200190815260200160002060010190805190602001906110e39291906112c9565b5089600080848152602001908152602001600020600201908051906020019061110d9291906112c9565b50886000808481526020019081526020016000206003018190555087600080848152602001908152602001600020600401819055508660008084815260200190815260200160002060070181905550856000808481526020019081526020016000206008018190555084600080848152602001908152602001600020600901908051906020019061119f9291906112c9565b5083600080848152602001908152602001600020600a0190805190602001906111c99291906112c9565b506001600080848152602001908152602001600020600b0160006101000a81548160ff021916908315150217905550600260003373ffffffffffffffffffffffffffffffffffffffff1673ffffffffffffffffffffffffffffffffffffffff168152602001908152602001600020600401600081548092919060010191905055905081600260003373ffffffffffffffffffffffffffffffffffffffff1673ffffffffffffffffffffffffffffffffffffffff16815260200190815260200160002060030160008381526020019081526020016000208190555060019250505098975050505050505050565b602060405190810160405280600081525090565b828054600181600116156101000203166002900490600052602060002090601f016020900481019282601f1061130a57805160ff1916838001178555611338565b82800160010185558215611338579182015b8281111561133757825182559160200191906001019061131c565b5b5090506113459190611349565b5090565b61136b91905b8082111561136757600081600090555060010161134f565b5090565b905600a165627a7a72305820e75cb8b5807d3e187cc45ffc7bb1cc73a6763bb4c79a02713f50d121073358620029",
  "source": "pragma solidity ^0.4.15;\n\n// This is just a simple example of a coin-like contract.\n// It is not standards compatible and cannot be expected to talk to other\n// coin/token contracts. If you want to create a standards-compliant\n// token, see: https://github.com/ConsenSys/Tokens. Cheers!\n\ncontract Senpai {\n\tstruct product{\n\t\taddress uploader;\n\t\tstring title;\n\t\tstring file_url;\n\t\tuint256 price;\n\t\tuint created_at;\n\t\tuint download_num;\n\t\tuint like_num;\n\t\tuint source_type; // 깜지, 시험, 필기 기타\n\t\tuint department;\n\t\tstring course_id;\n\t\tstring description;\n\t\tbool activate;\n\t}\n\n\tfunction getTitle(uint idx) public view returns(string){ return products[idx].title; }\n\tfunction getUploader(uint idx) public view returns(address){ return products[idx].uploader; }\n\tfunction getFileUrl(uint idx) public view returns(string){ return products[idx].file_url; }\n\tfunction getPrice(uint idx) public view returns(uint256){ return products[idx].price; }\n\tfunction getCreatedAt(uint idx) public view returns(uint){ return products[idx].created_at; }\n\tfunction getDownloadNum(uint idx) public view returns(uint){ return products[idx].download_num; }\n\tfunction getLikeNum(uint idx) public view returns(uint){ return products[idx].like_num; }\n\tfunction getSourceType(uint idx) public view returns(uint){ return products[idx].source_type; }\n\tfunction getDepartment(uint idx) public view returns(uint){ return products[idx].department; }\n\tfunction getCourseId(uint idx) public view returns(string){ return products[idx].course_id; }\n\tfunction getDescription(uint idx) public view returns(string){ return products[idx].description; }\n\tfunction getAAA(uint idx) public view returns (uint) {\n\t\treturn products[idx].price;\n\t}\n\n\n\tstruct user{\n\t\tstring nickname;\n\t\tmapping(uint => uint) purchased_products;\n\t\tuint purchased_products_total;\n\t\tmapping(uint => uint) selling_products;\n\t\tuint selling_products_total;\n\t}\n\n\n\tmapping(uint => product) private products;\n\tuint products_total;\n\n\tmapping(address => user) private users;\n\n\n\tfunction like(uint pid) public returns (bool) {\n\t\trequire(pid >= 0 && pid < products_total);\n\t\tproducts[pid].like_num++;\n\t\treturn true;\n\t}\n\n\tfunction create_product(string _title, string _file_url, uint256 _price,\n\t\tuint _created_at, uint _source_type, uint _department, string _course_id,\n\t\tstring _description) payable public returns (bool) {\n\t\t\tuint pid = products_total++;\n\t\t\tproducts[pid].title = _title;\n\t\t\tproducts[pid].file_url = _file_url;\n\t\t\tproducts[pid].price = _price;\n\t\t\tproducts[pid].created_at = _created_at;\n\t\t\tproducts[pid].source_type = _source_type;\n\t\t\tproducts[pid].department = _department;\n\t\t\tproducts[pid].course_id = _course_id;\n\t\t\tproducts[pid].description = _description;\n\t\t\tproducts[pid].activate = true;\n\t\t\tuint psid = users[msg.sender].selling_products_total++;\n\t\t\tusers[msg.sender].selling_products[psid] = pid;\n\t\t\treturn true;\n\t\t}\n\n\n\t\tfunction edit_product(uint pid, string _title, string _file_url, uint256 _price,\n\t\t\tuint _created_at, uint _source_type, uint _department, string _course_id,\n\t\t\tstring _description, bool _activate) public returns (bool) {\n\t\t\t\tproducts[pid].uploader = msg.sender;\n\t\t\t\tproducts[pid].title = _title;\n\t\t\t\tproducts[pid].file_url = _file_url;\n\t\t\t\tproducts[pid].price = _price;\n\t\t\t\tproducts[pid].created_at = _created_at;\n\t\t\t\tproducts[pid].source_type = _source_type;\n\t\t\t\tproducts[pid].department = _department;\n\t\t\t\tproducts[pid].course_id = _course_id;\n\t\t\t\tproducts[pid].description = _description;\n\t\t\t\tproducts[pid].activate = _activate;\n\t\t\t\treturn true;\n\t\t\t}\n\n\t\t\tfunction get_purchased_products(uint product_idx) public view returns (uint upid){\n\t\t\t\taddress user_addr = msg.sender;\n\t\t\t\tupid = users[user_addr].purchased_products[product_idx];\n\t\t\t\treturn upid;\n\t\t\t}\n\n\t\t\tfunction get_selling_products(uint product_idx) public view returns (uint upid){\n\t\t\t\taddress user_addr = msg.sender;\n\t\t\t\tupid = users[user_addr].selling_products[product_idx];\n\t\t\t\treturn upid;\n\t\t\t}\n\n\t\t\tfunction purchase_product(uint pid) payable public {\n\t\t\t\trequire(pid >= 0 && pid < products_total);\n\t\t\t\taddress buyer = msg.sender;\n\t\t\t\t//bool result = products[pid].uploader.send(msg.value);\n\t\t\t\t//require (result);\n\t\t\t\tuint uid = users[buyer].purchased_products_total++;\n\t\t\t\tusers[buyer].purchased_products[uid] = pid;\n\t\t\t\tproducts[pid].download_num++;\n\t\t\t}\n}\n\n\n/*\nName (소스 제목)\nDescription (간략한 설명 by 업로더) // File_url (다운로드 기능) // Coin (가격) // Created_at (업로드 시간)\n// Download (다운로드 수) // Like (좋아요) // Type (깜지 / 시험 / 필기 / 기타) // Department (학과)\n// Course_id (학수번호)\nPurchase : user_id, source_id, (coin),\nRequest : user_id, title,\n nickname\n\n*/\n",
  "sourcePath": "/Users/Ideaboxer/Desktop/SummerCode2017/senpai/senpai/contracts/Senpai.sol",
  "compiler": {
    "name": "solc",
    "version": "0.4.18+commit.9cf6e910.Emscripten.clang"
  },
  "schemaVersion": "1.0.1",
  "updatedAt": "2017-11-25T16:58:49.789Z"
}