{
  "contractName": "Senpai",
  "abi": [
    {
      "constant": true,
      "inputs": [
        {
          "name": "idx",
          "type": "uint256"
        }
      ],
      "name": "getDepartment",
      "outputs": [
        {
          "name": "",
          "type": "uint256"
        }
      ],
      "payable": false,
      "stateMutability": "view",
      "type": "function"
    },
    {
      "constant": true,
      "inputs": [
        {
          "name": "idx",
          "type": "uint256"
        }
      ],
      "name": "getFileUrl",
      "outputs": [
        {
          "name": "",
          "type": "string"
        }
      ],
      "payable": false,
      "stateMutability": "view",
      "type": "function"
    },
    {
      "constant": true,
      "inputs": [
        {
          "name": "idx",
          "type": "uint256"
        }
      ],
      "name": "getLikeNum",
      "outputs": [
        {
          "name": "",
          "type": "uint256"
        }
      ],
      "payable": false,
      "stateMutability": "view",
      "type": "function"
    },
    {
      "constant": true,
      "inputs": [
        {
          "name": "idx",
          "type": "uint256"
        }
      ],
      "name": "getProductsTotal",
      "outputs": [
        {
          "name": "a",
          "type": "uint256"
        }
      ],
      "payable": false,
      "stateMutability": "view",
      "type": "function"
    },
    {
      "constant": true,
      "inputs": [
        {
          "name": "idx",
          "type": "uint256"
        }
      ],
      "name": "getDescription",
      "outputs": [
        {
          "name": "",
          "type": "string"
        }
      ],
      "payable": false,
      "stateMutability": "view",
      "type": "function"
    },
    {
      "constant": true,
      "inputs": [
        {
          "name": "idx",
          "type": "uint256"
        },
        {
          "name": "_title",
          "type": "string"
        },
        {
          "name": "_file_url",
          "type": "string"
        },
        {
          "name": "_price",
          "type": "uint256"
        },
        {
          "name": "_created_at",
          "type": "uint256"
        },
        {
          "name": "_source_type",
          "type": "uint256"
        },
        {
          "name": "_department",
          "type": "uint256"
        },
        {
          "name": "_course_id",
          "type": "string"
        },
        {
          "name": "_description",
          "type": "string"
        },
        {
          "name": "_activate",
          "type": "bool"
        }
      ],
      "name": "getCourseId",
      "outputs": [
        {
          "name": "",
          "type": "string"
        }
      ],
      "payable": false,
      "stateMutability": "view",
      "type": "function"
    },
    {
      "constant": false,
      "inputs": [
        {
          "name": "pid",
          "type": "uint256"
        },
        {
          "name": "_title",
          "type": "string"
        },
        {
          "name": "_file_url",
          "type": "string"
        },
        {
          "name": "_price",
          "type": "uint256"
        },
        {
          "name": "_created_at",
          "type": "uint256"
        },
        {
          "name": "_source_type",
          "type": "uint256"
        },
        {
          "name": "_department",
          "type": "uint256"
        },
        {
          "name": "_course_id",
          "type": "string"
        },
        {
          "name": "_description",
          "type": "string"
        },
        {
          "name": "_activate",
          "type": "bool"
        }
      ],
      "name": "edit_product",
      "outputs": [
        {
          "name": "",
          "type": "bool"
        }
      ],
      "payable": false,
      "stateMutability": "nonpayable",
      "type": "function"
    },
    {
      "constant": true,
      "inputs": [
        {
          "name": "product_idx",
          "type": "uint256"
        }
      ],
      "name": "get_purchased_products",
      "outputs": [
        {
          "name": "upid",
          "type": "uint256"
        }
      ],
      "payable": false,
      "stateMutability": "view",
      "type": "function"
    },
    {
      "constant": true,
      "inputs": [
        {
          "name": "idx",
          "type": "uint256"
        }
      ],
      "name": "getTitle",
      "outputs": [
        {
          "name": "",
          "type": "string"
        }
      ],
      "payable": false,
      "stateMutability": "view",
      "type": "function"
    },
    {
      "constant": true,
      "inputs": [
        {
          "name": "idx",
          "type": "uint256"
        }
      ],
      "name": "getCreatedAt",
      "outputs": [
        {
          "name": "",
          "type": "uint256"
        }
      ],
      "payable": false,
      "stateMutability": "view",
      "type": "function"
    },
    {
      "constant": true,
      "inputs": [
        {
          "name": "idx",
          "type": "uint256"
        }
      ],
      "name": "getDownloadNum",
      "outputs": [
        {
          "name": "",
          "type": "uint256"
        }
      ],
      "payable": false,
      "stateMutability": "view",
      "type": "function"
    },
    {
      "constant": true,
      "inputs": [
        {
          "name": "idx",
          "type": "uint256"
        }
      ],
      "name": "getUploader",
      "outputs": [
        {
          "name": "",
          "type": "address"
        }
      ],
      "payable": false,
      "stateMutability": "view",
      "type": "function"
    },
    {
      "constant": false,
      "inputs": [
        {
          "name": "pid",
          "type": "uint256"
        }
      ],
      "name": "purchase_product",
      "outputs": [],
      "payable": true,
      "stateMutability": "payable",
      "type": "function"
    },
    {
      "constant": true,
      "inputs": [
        {
          "name": "product_idx",
          "type": "uint256"
        }
      ],
      "name": "get_selling_products",
      "outputs": [
        {
          "name": "upid",
          "type": "uint256"
        }
      ],
      "payable": false,
      "stateMutability": "view",
      "type": "function"
    },
    {
      "constant": true,
      "inputs": [
        {
          "name": "idx",
          "type": "uint256"
        }
      ],
      "name": "getPrice",
      "outputs": [
        {
          "name": "",
          "type": "uint256"
        }
      ],
      "payable": false,
      "stateMutability": "view",
      "type": "function"
    },
    {
      "constant": false,
      "inputs": [
        {
          "name": "pid",
          "type": "uint256"
        }
      ],
      "name": "like",
      "outputs": [
        {
          "name": "",
          "type": "bool"
        }
      ],
      "payable": false,
      "stateMutability": "nonpayable",
      "type": "function"
    },
    {
      "constant": true,
      "inputs": [
        {
          "name": "idx",
          "type": "uint256"
        }
      ],
      "name": "getSourceType",
      "outputs": [
        {
          "name": "",
          "type": "uint256"
        }
      ],
      "payable": false,
      "stateMutability": "view",
      "type": "function"
    },
    {
      "constant": false,
      "inputs": [
        {
          "name": "_title",
          "type": "string"
        },
        {
          "name": "_file_url",
          "type": "string"
        },
        {
          "name": "_price",
          "type": "uint256"
        },
        {
          "name": "_created_at",
          "type": "uint256"
        },
        {
          "name": "_source_type",
          "type": "uint256"
        },
        {
          "name": "_department",
          "type": "uint256"
        },
        {
          "name": "_course_id",
          "type": "string"
        },
        {
          "name": "_description",
          "type": "string"
        }
      ],
      "name": "create_product",
      "outputs": [
        {
          "name": "",
          "type": "bool"
        }
      ],
      "payable": true,
      "stateMutability": "payable",
      "type": "function"
    }
  ],
  "bytecode": "0x6060604052341561000f57600080fd5b61137a8061001e6000396000f3006060604052600436106100fc576000357c0100000000000000000000000000000000000000000000000000000000900463ffffffff1680631658747c146101015780631ae40dd0146101385780632fa68dfa146101d457806348bcf73d1461020b5780634925ec551461023457806352db07ee146102d05780635fbe8e971461036c5780637022e37c146104e2578063929a79b1146105195780639676d809146105b5578063973add6d146105ec578063c47ddae914610623578063d102747814610686578063e58989c81461069e578063e7572230146106d5578063e82935da1461070c578063eeaa805714610747578063faf93a7b1461077e575b600080fd5b341561010c57600080fd5b61012260048080359060200190919050506108d5565b6040518082815260200191505060405180910390f35b341561014357600080fd5b61015960048080359060200190919050506108f4565b6040518080602001828103825283818151815260200191508051906020019080838360005b8381101561019957808201518184015260208101905061017e565b50505050905090810190601f1680156101c65780820380516001836020036101000a031916815260200191505b509250505060405180910390f35b34156101df57600080fd5b6101f560048080359060200190919050506109b1565b6040518082815260200191505060405180910390f35b341561021657600080fd5b61021e6109d0565b6040518082815260200191505060405180910390f35b341561023f57600080fd5b61025560048080359060200190919050506109dd565b6040518080602001828103825283818151815260200191508051906020019080838360005b8381101561029557808201518184015260208101905061027a565b50505050905090810190601f1680156102c25780820380516001836020036101000a031916815260200191505b509250505060405180910390f35b34156102db57600080fd5b6102f16004808035906020019091905050610a9a565b6040518080602001828103825283818151815260200191508051906020019080838360005b83811015610331578082015181840152602081019050610316565b50505050905090810190601f16801561035e5780820380516001836020036101000a031916815260200191505b509250505060405180910390f35b341561037757600080fd5b6104c8600480803590602001909190803590602001908201803590602001908080601f0160208091040260200160405190810160405280939291908181526020018383808284378201915050505050509190803590602001908201803590602001908080601f0160208091040260200160405190810160405280939291908181526020018383808284378201915050505050509190803590602001909190803590602001909190803590602001909190803590602001909190803590602001908201803590602001908080601f0160208091040260200160405190810160405280939291908181526020018383808284378201915050505050509190803590602001908201803590602001908080601f016020809104026020016040519081016040528093929190818152602001838380828437820191505050505050919080351515906020019091905050610b57565b604051808215151515815260200191505060405180910390f35b34156104ed57600080fd5b6105036004808035906020019091905050610cfc565b6040518082815260200191505060405180910390f35b341561052457600080fd5b61053a6004808035906020019091905050610d61565b6040518080602001828103825283818151815260200191508051906020019080838360005b8381101561057a57808201518184015260208101905061055f565b50505050905090810190601f1680156105a75780820380516001836020036101000a031916815260200191505b509250505060405180910390f35b34156105c057600080fd5b6105d66004808035906020019091905050610e1e565b6040518082815260200191505060405180910390f35b34156105f757600080fd5b61060d6004808035906020019091905050610e3d565b6040518082815260200191505060405180910390f35b341561062e57600080fd5b6106446004808035906020019091905050610e5c565b604051808273ffffffffffffffffffffffffffffffffffffffff1673ffffffffffffffffffffffffffffffffffffffff16815260200191505060405180910390f35b61069c6004808035906020019091905050610e9b565b005b34156106a957600080fd5b6106bf6004808035906020019091905050610f93565b6040518082815260200191505060405180910390f35b34156106e057600080fd5b6106f66004808035906020019091905050610ff8565b6040518082815260200191505060405180910390f35b341561071757600080fd5b61072d6004808035906020019091905050611017565b604051808215151515815260200191505060405180910390f35b341561075257600080fd5b6107686004808035906020019091905050611063565b6040518082815260200191505060405180910390f35b6108bb600480803590602001908201803590602001908080601f0160208091040260200160405190810160405280939291908181526020018383808284378201915050505050509190803590602001908201803590602001908080601f0160208091040260200160405190810160405280939291908181526020018383808284378201915050505050509190803590602001909190803590602001909190803590602001909190803590602001909190803590602001908201803590602001908080601f0160208091040260200160405190810160405280939291908181526020018383808284378201915050505050509190803590602001908201803590602001908080601f01602080910402602001604051908101604052809392919081815260200183838082843782019150505050505091905050611082565b604051808215151515815260200191505060405180910390f35b6000806000838152602001908152602001600020600801549050919050565b6108fc611295565b6000808381526020019081526020016000206002018054600181600116156101000203166002900480601f0160208091040260200160405190810160405280929190818152602001828054600181600116156101000203166002900480156109a55780601f1061097a576101008083540402835291602001916109a5565b820191906000526020600020905b81548152906001019060200180831161098857829003601f168201915b50505050509050919050565b6000806000838152602001908152602001600020600601549050919050565b6000600154905080905090565b6109e5611295565b600080838152602001908152602001600020600a018054600181600116156101000203166002900480601f016020809104026020016040519081016040528092919081815260200182805460018160011615610100020316600290048015610a8e5780601f10610a6357610100808354040283529160200191610a8e565b820191906000526020600020905b815481529060010190602001808311610a7157829003601f168201915b50505050509050919050565b610aa2611295565b6000808381526020019081526020016000206009018054600181600116156101000203166002900480601f016020809104026020016040519081016040528092919081815260200182805460018160011615610100020316600290048015610b4b5780601f10610b2057610100808354040283529160200191610b4b565b820191906000526020600020905b815481529060010190602001808311610b2e57829003601f168201915b50505050509050919050565b6000336000808d815260200190815260200160002060000160006101000a81548173ffffffffffffffffffffffffffffffffffffffff021916908373ffffffffffffffffffffffffffffffffffffffff160217905550896000808d81526020019081526020016000206001019080519060200190610bd69291906112a9565b50886000808d81526020019081526020016000206002019080519060200190610c009291906112a9565b50876000808d815260200190815260200160002060030181905550866000808d815260200190815260200160002060040181905550856000808d815260200190815260200160002060070181905550846000808d815260200190815260200160002060080181905550836000808d81526020019081526020016000206009019080519060200190610c929291906112a9565b50826000808d8152602001908152602001600020600a019080519060200190610cbc9291906112a9565b50816000808d8152602001908152602001600020600b0160006101000a81548160ff021916908315150217905550600190509a9950505050505050505050565b600080339050600260008273ffffffffffffffffffffffffffffffffffffffff1673ffffffffffffffffffffffffffffffffffffffff168152602001908152602001600020600101600084815260200190815260200160002054915081915050919050565b610d69611295565b6000808381526020019081526020016000206001018054600181600116156101000203166002900480601f016020809104026020016040519081016040528092919081815260200182805460018160011615610100020316600290048015610e125780601f10610de757610100808354040283529160200191610e12565b820191906000526020600020905b815481529060010190602001808311610df557829003601f168201915b50505050509050919050565b6000806000838152602001908152602001600020600401549050919050565b6000806000838152602001908152602001600020600501549050919050565b600080600083815260200190815260200160002060000160009054906101000a900473ffffffffffffffffffffffffffffffffffffffff169050919050565b60008060008310158015610eb0575060015483105b1515610ebb57600080fd5b339150600260008373ffffffffffffffffffffffffffffffffffffffff1673ffffffffffffffffffffffffffffffffffffffff168152602001908152602001600020600201600081548092919060010191905055905082600260008473ffffffffffffffffffffffffffffffffffffffff1673ffffffffffffffffffffffffffffffffffffffff16815260200190815260200160002060010160008381526020019081526020016000208190555060008084815260200190815260200160002060050160008154809291906001019190505550505050565b600080339050600260008273ffffffffffffffffffffffffffffffffffffffff1673ffffffffffffffffffffffffffffffffffffffff168152602001908152602001600020600301600084815260200190815260200160002054915081915050919050565b6000806000838152602001908152602001600020600301549050919050565b600080821015801561102a575060015482105b151561103557600080fd5b6000808381526020019081526020016000206006016000815480929190600101919050555060019050919050565b6000806000838152602001908152602001600020600701549050919050565b6000806000600160008154809291906001019190505591508a60008084815260200190815260200160002060010190805190602001906110c39291906112a9565b508960008084815260200190815260200160002060020190805190602001906110ed9291906112a9565b50886000808481526020019081526020016000206003018190555087600080848152602001908152602001600020600401819055508660008084815260200190815260200160002060070181905550856000808481526020019081526020016000206008018190555084600080848152602001908152602001600020600901908051906020019061117f9291906112a9565b5083600080848152602001908152602001600020600a0190805190602001906111a99291906112a9565b506001600080848152602001908152602001600020600b0160006101000a81548160ff021916908315150217905550600260003373ffffffffffffffffffffffffffffffffffffffff1673ffffffffffffffffffffffffffffffffffffffff168152602001908152602001600020600401600081548092919060010191905055905081600260003373ffffffffffffffffffffffffffffffffffffffff1673ffffffffffffffffffffffffffffffffffffffff16815260200190815260200160002060030160008381526020019081526020016000208190555060019250505098975050505050505050565b602060405190810160405280600081525090565b828054600181600116156101000203166002900490600052602060002090601f016020900481019282601f106112ea57805160ff1916838001178555611318565b82800160010185558215611318579182015b828111156113175782518255916020019190600101906112fc565b5b5090506113259190611329565b5090565b61134b91905b8082111561134757600081600090555060010161132f565b5090565b905600a165627a7a7230582026d74c746ed406a32f89b8ec259f0fb4abe3a4a70b083e391a4a670d5e95ba440029",
  "source": "pragma solidity ^0.4.15;\n\n// This is just a simple example of a coin-like contract.\n// It is not standards compatible and cannot be expected to talk to other\n// coin/token contracts. If you want to create a standards-compliant\n// token, see: https://github.com/ConsenSys/Tokens. Cheers!\n\ncontract Senpai {\n\tstruct product{\n\t\taddress uploader;\n\t\tstring title;\n\t\tstring file_url;\n\t\tuint256 price;\n\t\tuint created_at;\n\t\tuint download_num;\n\t\tuint like_num;\n\t\tuint source_type; // 깜지, 시험, 필기 기타\n\t\tuint department;\n\t\tstring course_id;\n\t\tstring description;\n\t\tbool activate;\n\t}\n\n\tfunction getTitle(uint idx) public view returns(string){ return products[idx].title; }\n\tfunction getUploader(uint idx) public view returns(address){ return products[idx].uploader; }\n\tfunction getFileUrl(uint idx) public view returns(string){ return products[idx].file_url; }\n\tfunction getPrice(uint idx) public view returns(uint256){ return products[idx].price; }\n\tfunction getCreatedAt(uint idx) public view returns(uint){ return products[idx].created_at; }\n\tfunction getDownloadNum(uint idx) public view returns(uint){ return products[idx].download_num; }\n\tfunction getLikeNum(uint idx) public view returns(uint){ return products[idx].like_num; }\n\tfunction getSourceType(uint idx) public view returns(uint){ return products[idx].source_type; }\n\tfunction getDepartment(uint idx) public view returns(uint){ return products[idx].department; }\n\tfunction getCourseId(uint idx) public view returns(string){ return products[idx].course_id; }\n\tfunction getDescription(uint idx) public view returns(string){ return products[idx].description; }\n\n\n\n\tstruct user{\n\t\tstring nickname;\n\t\tmapping(uint => uint) purchased_products;\n\t\tuint purchased_products_total;\n\t\tmapping(uint => uint) selling_products;\n\t\tuint selling_products_total;\n\t}\n\n\n\tmapping(uint => product) private products;\n\tuint products_total;\n\n\tmapping(address => user) private users;\n\n\n\tfunction like(uint pid) public returns (bool) {\n\t\trequire(pid >= 0 && pid < products_total);\n\t\tproducts[pid].like_num++;\n\t\treturn true;\n\t}\n\n\tfunction create_product(string _title, string _file_url, uint256 _price,\n\t\tuint _created_at, uint _source_type, uint _department, string _course_id,\n\t\tstring _description) payable public returns (bool) {\n\t\t\tuint pid = products_total++;\n\t\t\tproducts[pid].title = _title;\n\t\t\tproducts[pid].file_url = _file_url;\n\t\t\tproducts[pid].price = _price;\n\t\t\tproducts[pid].created_at = _created_at;\n\t\t\tproducts[pid].source_type = _source_type;\n\t\t\tproducts[pid].department = _department;\n\t\t\tproducts[pid].course_id = _course_id;\n\t\t\tproducts[pid].description = _description;\n\t\t\tproducts[pid].activate = true;\n\t\t\tuint psid = users[msg.sender].selling_products_total++;\n\t\t\tusers[msg.sender].selling_products[psid] = pid;\n\t\t\treturn true;\n\t\t}\n\n\n\t\tfunction edit_product(uint pid, string _title, string _file_url, uint256 _price,\n\t\t\tuint _created_at, uint _source_type, uint _department, string _course_id,\n\t\t\tstring _description, bool _activate) public returns (bool) {\n\t\t\t\tproducts[pid].uploader = msg.sender;\n\t\t\t\tproducts[pid].title = _title;\n\t\t\t\tproducts[pid].file_url = _file_url;\n\t\t\t\tproducts[pid].price = _price;\n\t\t\t\tproducts[pid].created_at = _created_at;\n\t\t\t\tproducts[pid].source_type = _source_type;\n\t\t\t\tproducts[pid].department = _department;\n\t\t\t\tproducts[pid].course_id = _course_id;\n\t\t\t\tproducts[pid].description = _description;\n\t\t\t\tproducts[pid].activate = _activate;\n\t\t\t\treturn true;\n\t\t\t}\n\n\t\t\tfunction get_purchased_products(uint product_idx) public view returns (uint upid){\n\t\t\t\taddress user_addr = msg.sender;\n\t\t\t\tupid = users[user_addr].purchased_products[product_idx];\n\t\t\t\treturn upid;\n\t\t\t}\n\n\t\t\tfunction get_selling_products(uint product_idx) public view returns (uint upid){\n\t\t\t\taddress user_addr = msg.sender;\n\t\t\t\tupid = users[user_addr].selling_products[product_idx];\n\t\t\t\treturn upid;\n\t\t\t}\n\n\t\t\tfunction purchase_product(uint pid) payable public {\n\t\t\t\trequire(pid >= 0 && pid < products_total);\n\t\t\t\taddress buyer = msg.sender;\n\t\t\t\t//bool result = products[pid].uploader.send(msg.value);\n\t\t\t\t//require (result);\n\t\t\t\tuint uid = users[buyer].purchased_products_total++;\n\t\t\t\tusers[buyer].purchased_products[uid] = pid;\n\t\t\t\tproducts[pid].download_num++;\n\t\t\t}\n\n\t\t\tfunction getProductsTotal() public view returns(uint a){\n\t\t\t\ta = products_total;\n\t\t\t\treturn a;\n\t\t\t}\n\n}\n\n\n/*\nName (소스 제목)\nDescription (간략한 설명 by 업로더) // File_url (다운로드 기능) // Coin (가격) // Created_at (업로드 시간)\n// Download (다운로드 수) // Like (좋아요) // Type (깜지 / 시험 / 필기 / 기타) // Department (학과)\n// Course_id (학수번호)\nPurchase : user_id, source_id, (coin),\nRequest : user_id, title,\n nickname\n\n*/\n",
  "sourcePath": "/Users/Skyn/Documents/Dev/senpai/contracts/Senpai.sol",
  "compiler": {
    "name": "solc",
    "version": "0.4.18+commit.9cf6e910.Emscripten.clang"
  },
  "schemaVersion": "1.0.1",
  "updatedAt": "2017-12-03T00:56:04.694Z"
}